{
  "_format": "hh-sol-artifact-1",
  "contractName": "GigShieldEscrow",
  "sourceName": "contracts/GigShieldEscrow.sol",
  "abi": [
    {
      "inputs": [
        {
          "internalType": "address",
          "name": "_client",
          "type": "address"
        },
        {
          "internalType": "address",
          "name": "_freelancer",
          "type": "address"
        },
        {
          "internalType": "address",
          "name": "_arbiter",
          "type": "address"
        },
        {
          "internalType": "string",
          "name": "_jobTitle",
          "type": "string"
        },
        {
          "internalType": "string",
          "name": "_ipfsContractCID",
          "type": "string"
        },
        {
          "internalType": "uint256",
          "name": "_milestoneCount",
          "type": "uint256"
        },
        {
          "internalType": "uint256",
          "name": "_platformFeeBps",
          "type": "uint256"
        }
      ],
      "stateMutability": "nonpayable",
      "type": "constructor"
    },
    {
      "anonymous": false,
      "inputs": [
        {
          "indexed": true,
          "internalType": "address",
          "name": "raisedBy",
          "type": "address"
        },
        {
          "indexed": false,
          "internalType": "string",
          "name": "evidenceCID",
          "type": "string"
        },
        {
          "indexed": false,
          "internalType": "uint256",
          "name": "timestamp",
          "type": "uint256"
        }
      ],
      "name": "DisputeRaised",
      "type": "event"
    },
    {
      "anonymous": false,
      "inputs": [
        {
          "indexed": true,
          "internalType": "address",
          "name": "resolvedBy",
          "type": "address"
        },
        {
          "indexed": false,
          "internalType": "uint8",
          "name": "ruling",
          "type": "uint8"
        },
        {
          "indexed": false,
          "internalType": "uint256",
          "name": "freelancerAmount",
          "type": "uint256"
        },
        {
          "indexed": false,
          "internalType": "uint256",
          "name": "clientAmount",
          "type": "uint256"
        }
      ],
      "name": "DisputeResolved",
      "type": "event"
    },
    {
      "anonymous": false,
      "inputs": [
        {
          "indexed": true,
          "internalType": "address",
          "name": "client",
          "type": "address"
        },
        {
          "indexed": false,
          "internalType": "uint256",
          "name": "amount",
          "type": "uint256"
        },
        {
          "indexed": false,
          "internalType": "uint256",
          "name": "timestamp",
          "type": "uint256"
        }
      ],
      "name": "Funded",
      "type": "event"
    },
    {
      "anonymous": false,
      "inputs": [
        {
          "indexed": true,
          "internalType": "address",
          "name": "to",
          "type": "address"
        },
        {
          "indexed": false,
          "internalType": "uint256",
          "name": "amount",
          "type": "uint256"
        },
        {
          "indexed": false,
          "internalType": "uint256",
          "name": "timestamp",
          "type": "uint256"
        }
      ],
      "name": "FundsReleased",
      "type": "event"
    },
    {
      "anonymous": false,
      "inputs": [
        {
          "indexed": false,
          "internalType": "uint256",
          "name": "milestoneIndex",
          "type": "uint256"
        },
        {
          "indexed": false,
          "internalType": "uint256",
          "name": "amountReleased",
          "type": "uint256"
        },
        {
          "indexed": false,
          "internalType": "uint256",
          "name": "timestamp",
          "type": "uint256"
        }
      ],
      "name": "MilestoneApproved",
      "type": "event"
    },
    {
      "anonymous": false,
      "inputs": [
        {
          "indexed": false,
          "internalType": "uint256",
          "name": "milestoneIndex",
          "type": "uint256"
        },
        {
          "indexed": false,
          "internalType": "uint256",
          "name": "timestamp",
          "type": "uint256"
        }
      ],
      "name": "MilestoneSubmitted",
      "type": "event"
    },
    {
      "anonymous": false,
      "inputs": [
        {
          "indexed": true,
          "internalType": "address",
          "name": "to",
          "type": "address"
        },
        {
          "indexed": false,
          "internalType": "uint256",
          "name": "amount",
          "type": "uint256"
        },
        {
          "indexed": false,
          "internalType": "uint256",
          "name": "timestamp",
          "type": "uint256"
        }
      ],
      "name": "Refunded",
      "type": "event"
    },
    {
      "anonymous": false,
      "inputs": [
        {
          "indexed": true,
          "internalType": "address",
          "name": "freelancer",
          "type": "address"
        },
        {
          "indexed": false,
          "internalType": "uint256",
          "name": "timestamp",
          "type": "uint256"
        }
      ],
      "name": "WorkStarted",
      "type": "event"
    },
    {
      "inputs": [],
      "name": "approveMilestone",
      "outputs": [],
      "stateMutability": "nonpayable",
      "type": "function"
    },
    {
      "inputs": [],
      "name": "arbiter",
      "outputs": [
        {
          "internalType": "address",
          "name": "",
          "type": "address"
        }
      ],
      "stateMutability": "view",
      "type": "function"
    },
    {
      "inputs": [],
      "name": "client",
      "outputs": [
        {
          "internalType": "address",
          "name": "",
          "type": "address"
        }
      ],
      "stateMutability": "view",
      "type": "function"
    },
    {
      "inputs": [],
      "name": "completedAt",
      "outputs": [
        {
          "internalType": "uint256",
          "name": "",
          "type": "uint256"
        }
      ],
      "stateMutability": "view",
      "type": "function"
    },
    {
      "inputs": [],
      "name": "createdAt",
      "outputs": [
        {
          "internalType": "uint256",
          "name": "",
          "type": "uint256"
        }
      ],
      "stateMutability": "view",
      "type": "function"
    },
    {
      "inputs": [],
      "name": "deposit",
      "outputs": [],
      "stateMutability": "payable",
      "type": "function"
    },
    {
      "inputs": [],
      "name": "freelancer",
      "outputs": [
        {
          "internalType": "address",
          "name": "",
          "type": "address"
        }
      ],
      "stateMutability": "view",
      "type": "function"
    },
    {
      "inputs": [],
      "name": "fundedAt",
      "outputs": [
        {
          "internalType": "uint256",
          "name": "",
          "type": "uint256"
        }
      ],
      "stateMutability": "view",
      "type": "function"
    },
    {
      "inputs": [],
      "name": "getBalance",
      "outputs": [
        {
          "internalType": "uint256",
          "name": "",
          "type": "uint256"
        }
      ],
      "stateMutability": "view",
      "type": "function"
    },
    {
      "inputs": [],
      "name": "getContractInfo",
      "outputs": [
        {
          "internalType": "address",
          "name": "_client",
          "type": "address"
        },
        {
          "internalType": "address",
          "name": "_freelancer",
          "type": "address"
        },
        {
          "internalType": "uint256",
          "name": "_totalAmount",
          "type": "uint256"
        },
        {
          "internalType": "uint256",
          "name": "_balance",
          "type": "uint256"
        },
        {
          "internalType": "enum GigShieldEscrow.Status",
          "name": "_status",
          "type": "uint8"
        },
        {
          "internalType": "uint256",
          "name": "_milestonesCompleted",
          "type": "uint256"
        },
        {
          "internalType": "uint256",
          "name": "_milestoneCount",
          "type": "uint256"
        },
        {
          "internalType": "string",
          "name": "_jobTitle",
          "type": "string"
        },
        {
          "internalType": "string",
          "name": "_ipfsContractCID",
          "type": "string"
        },
        {
          "internalType": "string",
          "name": "_ipfsEvidenceCID",
          "type": "string"
        }
      ],
      "stateMutability": "view",
      "type": "function"
    },
    {
      "inputs": [],
      "name": "ipfsContractCID",
      "outputs": [
        {
          "internalType": "string",
          "name": "",
          "type": "string"
        }
      ],
      "stateMutability": "view",
      "type": "function"
    },
    {
      "inputs": [],
      "name": "ipfsEvidenceCID",
      "outputs": [
        {
          "internalType": "string",
          "name": "",
          "type": "string"
        }
      ],
      "stateMutability": "view",
      "type": "function"
    },
    {
      "inputs": [],
      "name": "jobTitle",
      "outputs": [
        {
          "internalType": "string",
          "name": "",
          "type": "string"
        }
      ],
      "stateMutability": "view",
      "type": "function"
    },
    {
      "inputs": [],
      "name": "milestoneCount",
      "outputs": [
        {
          "internalType": "uint256",
          "name": "",
          "type": "uint256"
        }
      ],
      "stateMutability": "view",
      "type": "function"
    },
    {
      "inputs": [],
      "name": "milestonesCompleted",
      "outputs": [
        {
          "internalType": "uint256",
          "name": "",
          "type": "uint256"
        }
      ],
      "stateMutability": "view",
      "type": "function"
    },
    {
      "inputs": [],
      "name": "platformFeeBps",
      "outputs": [
        {
          "internalType": "uint256",
          "name": "",
          "type": "uint256"
        }
      ],
      "stateMutability": "view",
      "type": "function"
    },
    {
      "inputs": [
        {
          "internalType": "string",
          "name": "_evidenceCID",
          "type": "string"
        }
      ],
      "name": "raiseDispute",
      "outputs": [],
      "stateMutability": "nonpayable",
      "type": "function"
    },
    {
      "inputs": [],
      "name": "requestRefund",
      "outputs": [],
      "stateMutability": "nonpayable",
      "type": "function"
    },
    {
      "inputs": [
        {
          "internalType": "uint256",
          "name": "freelancerBps",
          "type": "uint256"
        }
      ],
      "name": "resolveDispute",
      "outputs": [],
      "stateMutability": "nonpayable",
      "type": "function"
    },
    {
      "inputs": [],
      "name": "startWork",
      "outputs": [],
      "stateMutability": "nonpayable",
      "type": "function"
    },
    {
      "inputs": [],
      "name": "status",
      "outputs": [
        {
          "internalType": "enum GigShieldEscrow.Status",
          "name": "",
          "type": "uint8"
        }
      ],
      "stateMutability": "view",
      "type": "function"
    },
    {
      "inputs": [],
      "name": "submitMilestone",
      "outputs": [],
      "stateMutability": "nonpayable",
      "type": "function"
    },
    {
      "inputs": [],
      "name": "totalAmount",
      "outputs": [
        {
          "internalType": "uint256",
          "name": "",
          "type": "uint256"
        }
      ],
      "stateMutability": "view",
      "type": "function"
    },
    {
      "stateMutability": "payable",
      "type": "receive"
    }
  ],
  "bytecode": "0x60806040523480156200001157600080fd5b5060405162001a6338038062001a63833981016040819052620000349162000314565b6001600160a01b038716158015906200005557506001600160a01b03861615155b6200009b5760405162461bcd60e51b8152602060048201526011602482015270496e76616c69642061646472657373657360781b60448201526064015b60405180910390fd5b856001600160a01b0316876001600160a01b0316036200010f5760405162461bcd60e51b815260206004820152602860248201527f436c69656e7420616e6420667265656c616e6365722063616e6e6f74206265206044820152677468652073616d6560c01b606482015260840162000092565b600082118015620001215750600a8211155b620001615760405162461bcd60e51b815260206004820152600f60248201526e312d3130206d696c6573746f6e657360881b604482015260640162000092565b6101f4811115620001b55760405162461bcd60e51b815260206004820152601460248201527f4665652063616e6e6f7420657863656564203525000000000000000000000000604482015260640162000092565b600080546001600160a01b03808a166001600160a01b031992831617909255600180548984169083161790556002805492881692909116919091179055600562000200858262000459565b5060066200020f848262000459565b506008919091556004555050600a805460ff19169055505042600b555062000525565b80516001600160a01b03811681146200024a57600080fd5b919050565b634e487b7160e01b600052604160045260246000fd5b600082601f8301126200027757600080fd5b81516001600160401b03808211156200029457620002946200024f565b604051601f8301601f19908116603f01168101908282118183101715620002bf57620002bf6200024f565b81604052838152602092508683858801011115620002dc57600080fd5b600091505b83821015620003005785820183015181830184015290820190620002e1565b600093810190920192909252949350505050565b600080600080600080600060e0888a0312156200033057600080fd5b6200033b8862000232565b96506200034b6020890162000232565b95506200035b6040890162000232565b60608901519095506001600160401b03808211156200037957600080fd5b620003878b838c0162000265565b955060808a01519150808211156200039e57600080fd5b50620003ad8a828b0162000265565b93505060a0880151915060c0880151905092959891949750929550565b600181811c90821680620003df57607f821691505b6020821081036200040057634e487b7160e01b600052602260045260246000fd5b50919050565b601f8211156200045457600081815260208120601f850160051c810160208610156200042f5750805b601f850160051c820191505b8181101562000450578281556001016200043b565b5050505b505050565b81516001600160401b038111156200047557620004756200024f565b6200048d81620004868454620003ca565b8462000406565b602080601f831160018114620004c55760008415620004ac5750858301515b600019600386901b1c1916600185901b17855562000450565b600085815260208120601f198616915b82811015620004f657888601518255948401946001909101908401620004d5565b5085821015620005155787850151600019600388901b60f8161c191681555b5050505050600190811b01905550565b61152e80620005356000396000f3fe6080604052600436106101445760003560e01c8063725a3b4b116100b6578063a9a748ff1161006f578063a9a748ff1461033b578063c2b7b86814610351578063cf09e0d014610371578063d0e30db014610387578063d5cef1331461038f578063fe25e00a146103a457600080fd5b8063725a3b4b146102915780637cc1f867146102b15780638cda4fb9146102dc57806391f85339146102f15780639fbcc83514610306578063a37dda2c1461031b57600080fd5b80631a755680116101085780631a755680146101f1578063200d2ed21461020757806322dcd13e1461022e578063322ee9fd1461024457806338771242146102665780633ff4b9381461027c57600080fd5b806301034979146101505780630681ca5514610167578063109e94cf1461019057806312065fe0146101c85780631a39d8ef146101db57600080fd5b3661014b57005b600080fd5b34801561015c57600080fd5b506101656103c4565b005b34801561017357600080fd5b5061017d60085481565b6040519081526020015b60405180910390f35b34801561019c57600080fd5b506000546101b0906001600160a01b031681565b6040516001600160a01b039091168152602001610187565b3480156101d457600080fd5b504761017d565b3480156101e757600080fd5b5061017d60035481565b3480156101fd57600080fd5b5061017d60095481565b34801561021357600080fd5b50600a546102219060ff1681565b60405161018791906110da565b34801561023a57600080fd5b5061017d60045481565b34801561025057600080fd5b50610259610492565b6040516101879190611134565b34801561027257600080fd5b5061017d600d5481565b34801561028857600080fd5b50610259610520565b34801561029d57600080fd5b506101656102ac36600461114e565b61052d565b3480156102bd57600080fd5b506102c66106d5565b6040516101879a999897969594939291906111c0565b3480156102e857600080fd5b506102596108f3565b3480156102fd57600080fd5b50610165610900565b34801561031257600080fd5b50610165610b2c565b34801561032757600080fd5b506001546101b0906001600160a01b031681565b34801561034757600080fd5b5061017d600c5481565b34801561035d57600080fd5b5061016561036c36600461124d565b610c05565b34801561037d57600080fd5b5061017d600b5481565b610165610df5565b34801561039b57600080fd5b50610165610ef8565b3480156103b057600080fd5b506002546101b0906001600160a01b031681565b6001546001600160a01b031633146104155760405162461bcd60e51b815260206004820152600f60248201526e27b7363c90333932b2b630b731b2b960891b60448201526064015b60405180910390fd5b600180600a5460ff16600681111561042f5761042f6110a2565b1461044c5760405162461bcd60e51b815260040161040c90611266565b600a805460ff1916600217905560405142815233907f3a418e9cc3b61bda49e114dc7a01a75db0094b1b783b9272d12682d39c7cfabd906020015b60405180910390a250565b6006805461049f906112ad565b80601f01602080910402602001604051908101604052809291908181526020018280546104cb906112ad565b80156105185780601f106104ed57610100808354040283529160200191610518565b820191906000526020600020905b8154815290600101906020018083116104fb57829003601f168201915b505050505081565b6005805461049f906112ad565b6000546001600160a01b031633148061055057506001546001600160a01b031633145b61058b5760405162461bcd60e51b815260206004820152600c60248201526b4f6e6c79207061727469657360a01b604482015260640161040c565b6001600a5460ff1660068111156105a4576105a46110a2565b14806105c657506002600a5460ff1660068111156105c4576105c46110a2565b145b806105e757506003600a5460ff1660068111156105e5576105e56110a2565b145b6106335760405162461bcd60e51b815260206004820152601f60248201527f43616e6e6f74206469737075746520696e2063757272656e7420737461746500604482015260640161040c565b806106785760405162461bcd60e51b8152602060048201526015602482015274115d9a59195b98d94810d251081c995c5d5a5c9959605a1b604482015260640161040c565b600761068582848361134b565b50600a805460ff1916600417905560405133907fd4882c6b71dfbb8df0a01fa4cd97676f243a56dd525df6b891b2e1700e514e89906106c99085908590429061140c565b60405180910390a25050565b6000806000806000806000606080606060008054906101000a90046001600160a01b0316600160009054906101000a90046001600160a01b031660035447600a60009054906101000a900460ff1660095460085460056006600782805461073b906112ad565b80601f0160208091040260200160405190810160405280929190818152602001828054610767906112ad565b80156107b45780601f10610789576101008083540402835291602001916107b4565b820191906000526020600020905b81548152906001019060200180831161079757829003601f168201915b505050505092508180546107c7906112ad565b80601f01602080910402602001604051908101604052809291908181526020018280546107f3906112ad565b80156108405780601f1061081557610100808354040283529160200191610840565b820191906000526020600020905b81548152906001019060200180831161082357829003601f168201915b50505050509150808054610853906112ad565b80601f016020809104026020016040519081016040528092919081815260200182805461087f906112ad565b80156108cc5780601f106108a1576101008083540402835291602001916108cc565b820191906000526020600020905b8154815290600101906020018083116108af57829003601f168201915b50505050509050995099509950995099509950995099509950995090919293949596979899565b6007805461049f906112ad565b6000546001600160a01b0316331461092a5760405162461bcd60e51b815260040161040c90611445565b6003600a5460ff166006811115610943576109436110a2565b148061096557506002600a5460ff166006811115610963576109636110a2565b145b6109b15760405162461bcd60e51b815260206004820152601b60248201527f4e6f206d696c6573746f6e652070656e64696e67207265766965770000000000604482015260640161040c565b600980549060006109c183611480565b919050555060006008546003546109d89190611499565b90506000612710600454836109ed91906114bb565b6109f79190611499565b90506000610a0582846114d2565b905060085460095410610a5f57600454479061271090610a2590836114bb565b610a2f9190611499565b610a3990826114d2565b9150610a4582826114d2565b42600d55600a805460ff191660051790559250610a6d9050565b600a805460ff191660021790555b600154610a83906001600160a01b031682610ffc565b8115610a9f57600254610a9f906001600160a01b031683610ffc565b60095460408051918252602082018390524282820152517f6e3fd8bb18eed6833ae758e07c361bf145ce27c88bdf6d5029ddabf188d72ca69181900360600190a1600154604080518381524260208201526001600160a01b03909216917fc90c76155d237557f9162f07cd0da2ff40418cd82028c0e89535270fb9de5104910160405180910390a2505050565b6001546001600160a01b03163314610b785760405162461bcd60e51b815260206004820152600f60248201526e27b7363c90333932b2b630b731b2b960891b604482015260640161040c565b600280600a5460ff166006811115610b9257610b926110a2565b14610baf5760405162461bcd60e51b815260040161040c90611266565b600a805460ff191660031790556009547f26cf581e2709e0615164af15a371b2dd10fb48d5baed91e9eacd557633c16bcb90610bec9060016114e5565b604080519182524260208301520160405180910390a150565b6002546001600160a01b03163314610c4e5760405162461bcd60e51b815260206004820152600c60248201526b27b7363c9030b93134ba32b960a11b604482015260640161040c565b600480600a5460ff166006811115610c6857610c686110a2565b14610c855760405162461bcd60e51b815260040161040c90611266565b612710821115610cd75760405162461bcd60e51b815260206004820181905260248201527f426173697320706f696e74732063616e6e6f7420657863656564203130303030604482015260640161040c565b600454479060009061271090610ced90846114bb565b610cf79190611499565b90506000610d0582846114d2565b90506000612710610d1687846114bb565b610d209190611499565b90506000610d2e82846114d2565b600a805460ff1916600517905542600d5590508115610d5d57600154610d5d906001600160a01b031683610ffc565b8015610d7957600054610d79906001600160a01b031682610ffc565b8315610d9557600254610d95906001600160a01b031685610ffc565b337f1333d0eeae00dc26fa8763e803fdf5fb4d22571c09528267b39094ffdb8350576113888911610dc7576000610dca565b60015b6040805160ff909216825260208201869052810184905260600160405180910390a250505050505050565b6000546001600160a01b03163314610e1f5760405162461bcd60e51b815260040161040c90611445565b600080600a5460ff166006811115610e3957610e396110a2565b14610e565760405162461bcd60e51b815260040161040c90611266565b60003411610ea65760405162461bcd60e51b815260206004820152601c60248201527f4d757374206465706f736974206e6f6e2d7a65726f20616d6f756e7400000000604482015260640161040c565b3460035542600c55600a80546001919060ff1916828002179055506040805134815242602082015233917fcd909ec339185c4598a4096e174308fbdf136d117f230960f873a2f2e81f63af9101610487565b6000546001600160a01b03163314610f225760405162461bcd60e51b815260040161040c90611445565b6001600a5460ff166006811115610f3b57610f3b6110a2565b14610f935760405162461bcd60e51b815260206004820152602260248201527f43616e206f6e6c7920726566756e64206265666f726520776f726b2073746172604482015261747360f01b606482015260840161040c565b600a805460ff191660061790556000544790610fb8906001600160a01b031682610ffc565b600054604080518381524260208201526001600160a01b03909216917f2dc8e290002f06fc0085bbca9dfb8b415cf4d1178950c72ff9ee8f4d8878ee669101610487565b80600003611008575050565b6000826001600160a01b03168260405160006040518083038185875af1925050503d8060008114611055576040519150601f19603f3d011682016040523d82523d6000602084013e61105a565b606091505b505090508061109d5760405162461bcd60e51b815260206004820152600f60248201526e151c985b9cd9995c8819985a5b1959608a1b604482015260640161040c565b505050565b634e487b7160e01b600052602160045260246000fd5b600781106110d657634e487b7160e01b600052602160045260246000fd5b9052565b602081016110e882846110b8565b92915050565b6000815180845260005b81811015611114576020818501810151868301820152016110f8565b506000602082860101526020601f19601f83011685010191505092915050565b60208152600061114760208301846110ee565b9392505050565b6000806020838503121561116157600080fd5b823567ffffffffffffffff8082111561117957600080fd5b818501915085601f83011261118d57600080fd5b81358181111561119c57600080fd5b8660208285010111156111ae57600080fd5b60209290920196919550909350505050565b6001600160a01b038b811682528a166020820152604081018990526060810188905260006101406111f4608084018a6110b8565b8760a08401528660c08401528060e0840152611212818401876110ee565b905082810361010084015261122781866110ee565b905082810361012084015261123c81856110ee565b9d9c50505050505050505050505050565b60006020828403121561125f57600080fd5b5035919050565b60208082526027908201527f496e76616c696420636f6e74726163742073746174757320666f7220746869736040820152661030b1ba34b7b760c91b606082015260800190565b600181811c908216806112c157607f821691505b6020821081036112e157634e487b7160e01b600052602260045260246000fd5b50919050565b634e487b7160e01b600052604160045260246000fd5b601f82111561109d57600081815260208120601f850160051c810160208610156113245750805b601f850160051c820191505b8181101561134357828155600101611330565b505050505050565b67ffffffffffffffff831115611363576113636112e7565b6113778361137183546112ad565b836112fd565b6000601f8411600181146113ab57600085156113935750838201355b600019600387901b1c1916600186901b178355611405565b600083815260209020601f19861690835b828110156113dc57868501358255602094850194600190920191016113bc565b50868210156113f95760001960f88860031b161c19848701351681555b505060018560011b0183555b5050505050565b604081528260408201528284606083013760006060848301015260006060601f19601f8601168301019050826020830152949350505050565b6020808252600b908201526a13db9b1e4818db1a595b9d60aa1b604082015260600190565b634e487b7160e01b600052601160045260246000fd5b6000600182016114925761149261146a565b5060010190565b6000826114b657634e487b7160e01b600052601260045260246000fd5b500490565b80820281158282048414176110e8576110e861146a565b818103818111156110e8576110e861146a565b808201808211156110e8576110e861146a56fea2646970667358221220943e1dd283a64747004da972d3c5b950da0be60ca16cb809acfa150816d1588964736f6c63430008140033",
  "linkReferences": {},
  "deployedLinkReferences": {}
}